{
  "contractName": "CrossChainNFTBSC",
  "abi": [
    {
      "inputs": [
        {
          "internalType": "string",
          "name": "name",
          "type": "string"
        },
        {
          "internalType": "string",
          "name": "symbol",
          "type": "string"
        },
        {
          "internalType": "address",
          "name": "tokenBridge",
          "type": "address"
        }
      ],
      "stateMutability": "nonpayable",
      "type": "constructor"
    },
    {
      "anonymous": false,
      "inputs": [
        {
          "indexed": true,
          "internalType": "address",
          "name": "owner",
          "type": "address"
        },
        {
          "indexed": true,
          "internalType": "address",
          "name": "approved",
          "type": "address"
        },
        {
          "indexed": true,
          "internalType": "uint256",
          "name": "tokenId",
          "type": "uint256"
        }
      ],
      "name": "Approval",
      "type": "event"
    },
    {
      "anonymous": false,
      "inputs": [
        {
          "indexed": true,
          "internalType": "address",
          "name": "owner",
          "type": "address"
        },
        {
          "indexed": true,
          "internalType": "address",
          "name": "operator",
          "type": "address"
        },
        {
          "indexed": false,
          "internalType": "bool",
          "name": "approved",
          "type": "bool"
        }
      ],
      "name": "ApprovalForAll",
      "type": "event"
    },
    {
      "anonymous": false,
      "inputs": [
        {
          "indexed": false,
          "internalType": "uint256",
          "name": "_fromTokenId",
          "type": "uint256"
        },
        {
          "indexed": false,
          "internalType": "uint256",
          "name": "_toTokenId",
          "type": "uint256"
        }
      ],
      "name": "BatchMetadataUpdate",
      "type": "event"
    },
    {
      "anonymous": false,
      "inputs": [
        {
          "indexed": false,
          "internalType": "uint256",
          "name": "_tokenId",
          "type": "uint256"
        }
      ],
      "name": "MetadataUpdate",
      "type": "event"
    },
    {
      "anonymous": false,
      "inputs": [
        {
          "indexed": true,
          "internalType": "address",
          "name": "previousOwner",
          "type": "address"
        },
        {
          "indexed": true,
          "internalType": "address",
          "name": "newOwner",
          "type": "address"
        }
      ],
      "name": "OwnershipTransferred",
      "type": "event"
    },
    {
      "anonymous": false,
      "inputs": [
        {
          "indexed": true,
          "internalType": "address",
          "name": "from",
          "type": "address"
        },
        {
          "indexed": true,
          "internalType": "address",
          "name": "to",
          "type": "address"
        },
        {
          "indexed": true,
          "internalType": "uint256",
          "name": "tokenId",
          "type": "uint256"
        }
      ],
      "name": "Transfer",
      "type": "event"
    },
    {
      "anonymous": false,
      "inputs": [
        {
          "indexed": true,
          "internalType": "string",
          "name": "_value",
          "type": "string"
        },
        {
          "indexed": true,
          "internalType": "uint256",
          "name": "_id",
          "type": "uint256"
        }
      ],
      "name": "URI",
      "type": "event"
    },
    {
      "inputs": [
        {
          "internalType": "address",
          "name": "to",
          "type": "address"
        },
        {
          "internalType": "uint256",
          "name": "tokenId",
          "type": "uint256"
        }
      ],
      "name": "approve",
      "outputs": [],
      "stateMutability": "nonpayable",
      "type": "function"
    },
    {
      "inputs": [
        {
          "internalType": "address",
          "name": "owner",
          "type": "address"
        }
      ],
      "name": "balanceOf",
      "outputs": [
        {
          "internalType": "uint256",
          "name": "",
          "type": "uint256"
        }
      ],
      "stateMutability": "view",
      "type": "function"
    },
    {
      "inputs": [
        {
          "internalType": "uint256",
          "name": "tokenId",
          "type": "uint256"
        }
      ],
      "name": "getApproved",
      "outputs": [
        {
          "internalType": "address",
          "name": "",
          "type": "address"
        }
      ],
      "stateMutability": "view",
      "type": "function"
    },
    {
      "inputs": [
        {
          "internalType": "address",
          "name": "owner",
          "type": "address"
        },
        {
          "internalType": "address",
          "name": "operator",
          "type": "address"
        }
      ],
      "name": "isApprovedForAll",
      "outputs": [
        {
          "internalType": "bool",
          "name": "",
          "type": "bool"
        }
      ],
      "stateMutability": "view",
      "type": "function"
    },
    {
      "inputs": [],
      "name": "name",
      "outputs": [
        {
          "internalType": "string",
          "name": "",
          "type": "string"
        }
      ],
      "stateMutability": "view",
      "type": "function"
    },
    {
      "inputs": [],
      "name": "owner",
      "outputs": [
        {
          "internalType": "address",
          "name": "",
          "type": "address"
        }
      ],
      "stateMutability": "view",
      "type": "function"
    },
    {
      "inputs": [
        {
          "internalType": "uint256",
          "name": "tokenId",
          "type": "uint256"
        }
      ],
      "name": "ownerOf",
      "outputs": [
        {
          "internalType": "address",
          "name": "",
          "type": "address"
        }
      ],
      "stateMutability": "view",
      "type": "function"
    },
    {
      "inputs": [],
      "name": "renounceOwnership",
      "outputs": [],
      "stateMutability": "nonpayable",
      "type": "function"
    },
    {
      "inputs": [
        {
          "internalType": "address",
          "name": "from",
          "type": "address"
        },
        {
          "internalType": "address",
          "name": "to",
          "type": "address"
        },
        {
          "internalType": "uint256",
          "name": "tokenId",
          "type": "uint256"
        }
      ],
      "name": "safeTransferFrom",
      "outputs": [],
      "stateMutability": "nonpayable",
      "type": "function"
    },
    {
      "inputs": [
        {
          "internalType": "address",
          "name": "from",
          "type": "address"
        },
        {
          "internalType": "address",
          "name": "to",
          "type": "address"
        },
        {
          "internalType": "uint256",
          "name": "tokenId",
          "type": "uint256"
        },
        {
          "internalType": "bytes",
          "name": "data",
          "type": "bytes"
        }
      ],
      "name": "safeTransferFrom",
      "outputs": [],
      "stateMutability": "nonpayable",
      "type": "function"
    },
    {
      "inputs": [
        {
          "internalType": "address",
          "name": "operator",
          "type": "address"
        },
        {
          "internalType": "bool",
          "name": "approved",
          "type": "bool"
        }
      ],
      "name": "setApprovalForAll",
      "outputs": [],
      "stateMutability": "nonpayable",
      "type": "function"
    },
    {
      "inputs": [
        {
          "internalType": "bytes4",
          "name": "interfaceId",
          "type": "bytes4"
        }
      ],
      "name": "supportsInterface",
      "outputs": [
        {
          "internalType": "bool",
          "name": "",
          "type": "bool"
        }
      ],
      "stateMutability": "view",
      "type": "function"
    },
    {
      "inputs": [],
      "name": "symbol",
      "outputs": [
        {
          "internalType": "string",
          "name": "",
          "type": "string"
        }
      ],
      "stateMutability": "view",
      "type": "function"
    },
    {
      "inputs": [
        {
          "internalType": "address",
          "name": "from",
          "type": "address"
        },
        {
          "internalType": "address",
          "name": "to",
          "type": "address"
        },
        {
          "internalType": "uint256",
          "name": "tokenId",
          "type": "uint256"
        }
      ],
      "name": "transferFrom",
      "outputs": [],
      "stateMutability": "nonpayable",
      "type": "function"
    },
    {
      "inputs": [
        {
          "internalType": "address",
          "name": "newOwner",
          "type": "address"
        }
      ],
      "name": "transferOwnership",
      "outputs": [],
      "stateMutability": "nonpayable",
      "type": "function"
    },
    {
      "inputs": [
        {
          "internalType": "address",
          "name": "to",
          "type": "address"
        },
        {
          "internalType": "string",
          "name": "nftURI",
          "type": "string"
        }
      ],
      "name": "mint",
      "outputs": [],
      "stateMutability": "nonpayable",
      "type": "function"
    },
    {
      "inputs": [
        {
          "internalType": "uint256",
          "name": "tokenId",
          "type": "uint256"
        },
        {
          "internalType": "string",
          "name": "nftURI",
          "type": "string"
        }
      ],
      "name": "transferFromETH",
      "outputs": [],
      "stateMutability": "nonpayable",
      "type": "function"
    },
    {
      "inputs": [
        {
          "internalType": "uint256",
          "name": "tokenId",
          "type": "uint256"
        }
      ],
      "name": "tokenURI",
      "outputs": [
        {
          "internalType": "string",
          "name": "",
          "type": "string"
        }
      ],
      "stateMutability": "view",
      "type": "function"
    }
  ],
  "bytecode": "0x608060405234801562000010575f80fd5b506040516200355b3803806200355b833981810160405281019062000036919062000376565b8282815f908162000048919062000644565b5080600190816200005a919062000644565b5050506200007d62000071620000c660201b60201c565b620000cd60201b60201c565b80600a5f6101000a81548173ffffffffffffffffffffffffffffffffffffffff021916908373ffffffffffffffffffffffffffffffffffffffff16021790555050505062000728565b5f33905090565b5f60075f9054906101000a900473ffffffffffffffffffffffffffffffffffffffff1690508160075f6101000a81548173ffffffffffffffffffffffffffffffffffffffff021916908373ffffffffffffffffffffffffffffffffffffffff1602179055508173ffffffffffffffffffffffffffffffffffffffff168173ffffffffffffffffffffffffffffffffffffffff167f8be0079c531659141344cd1fd0a4f28419497f9722a3daafe3b4186f6b6457e060405160405180910390a35050565b5f604051905090565b5f80fd5b5f80fd5b5f80fd5b5f80fd5b5f601f19601f8301169050919050565b7f4e487b71000000000000000000000000000000000000000000000000000000005f52604160045260245ffd5b620001f182620001a9565b810181811067ffffffffffffffff82111715620002135762000212620001b9565b5b80604052505050565b5f6200022762000190565b9050620002358282620001e6565b919050565b5f67ffffffffffffffff821115620002575762000256620001b9565b5b6200026282620001a9565b9050602081019050919050565b5f5b838110156200028e57808201518184015260208101905062000271565b5f8484015250505050565b5f620002af620002a9846200023a565b6200021c565b905082815260208101848484011115620002ce57620002cd620001a5565b5b620002db8482856200026f565b509392505050565b5f82601f830112620002fa57620002f9620001a1565b5b81516200030c84826020860162000299565b91505092915050565b5f73ffffffffffffffffffffffffffffffffffffffff82169050919050565b5f620003408262000315565b9050919050565b620003528162000334565b81146200035d575f80fd5b50565b5f81519050620003708162000347565b92915050565b5f805f6060848603121562000390576200038f62000199565b5b5f84015167ffffffffffffffff811115620003b057620003af6200019d565b5b620003be86828701620002e3565b935050602084015167ffffffffffffffff811115620003e257620003e16200019d565b5b620003f086828701620002e3565b9250506040620004038682870162000360565b9150509250925092565b5f81519050919050565b7f4e487b71000000000000000000000000000000000000000000000000000000005f52602260045260245ffd5b5f60028204905060018216806200045c57607f821691505b60208210810362000472576200047162000417565b5b50919050565b5f819050815f5260205f209050919050565b5f6020601f8301049050919050565b5f82821b905092915050565b5f60088302620004d67fffffffffffffffffffffffffffffffffffffffffffffffffffffffffffffffff8262000499565b620004e2868362000499565b95508019841693508086168417925050509392505050565b5f819050919050565b5f819050919050565b5f6200052c620005266200052084620004fa565b62000503565b620004fa565b9050919050565b5f819050919050565b62000547836200050c565b6200055f620005568262000533565b848454620004a5565b825550505050565b5f90565b6200057562000567565b620005828184846200053c565b505050565b5b81811015620005a9576200059d5f826200056b565b60018101905062000588565b5050565b601f821115620005f857620005c28162000478565b620005cd846200048a565b81016020851015620005dd578190505b620005f5620005ec856200048a565b83018262000587565b50505b505050565b5f82821c905092915050565b5f6200061a5f1984600802620005fd565b1980831691505092915050565b5f62000634838362000609565b9150826002028217905092915050565b6200064f826200040d565b67ffffffffffffffff8111156200066b576200066a620001b9565b5b62000677825462000444565b62000684828285620005ad565b5f60209050601f831160018114620006ba575f8415620006a5578287015190505b620006b1858262000627565b86555062000720565b601f198416620006ca8662000478565b5f5b82811015620006f357848901518255600182019150602085019450602081019050620006cc565b868310156200071357848901516200070f601f89168262000609565b8355505b6001600288020188555050505b505050505050565b612e2580620007365f395ff3fe608060405234801561000f575f80fd5b5060043610610114575f3560e01c8063715018a6116100a0578063b88d4fde1161006f578063b88d4fde146102c8578063c87b56dd146102e4578063d0def52114610314578063e985e9c514610330578063f2fde38b1461036057610114565b8063715018a6146102665780638da5cb5b1461027057806395d89b411461028e578063a22cb465146102ac57610114565b806323b872dd116100e757806323b872dd146101b25780632a905c40146101ce57806342842e0e146101ea5780636352211e1461020657806370a082311461023657610114565b806301ffc9a71461011857806306fdde0314610148578063081812fc14610166578063095ea7b314610196575b5f80fd5b610132600480360381019061012d9190611b86565b61037c565b60405161013f9190611bcb565b60405180910390f35b6101506103dc565b60405161015d9190611c6e565b60405180910390f35b610180600480360381019061017b9190611cc1565b61046b565b60405161018d9190611d2b565b60405180910390f35b6101b060048036038101906101ab9190611d6e565b6104ad565b005b6101cc60048036038101906101c79190611dac565b6105c3565b005b6101e860048036038101906101e39190611f28565b610623565b005b61020460048036038101906101ff9190611dac565b6106f1565b005b610220600480360381019061021b9190611cc1565b610710565b60405161022d9190611d2b565b60405180910390f35b610250600480360381019061024b9190611f82565b610794565b60405161025d9190611fbc565b60405180910390f35b61026e610848565b005b61027861085b565b6040516102859190611d2b565b60405180910390f35b610296610883565b6040516102a39190611c6e565b60405180910390f35b6102c660048036038101906102c19190611fff565b610913565b005b6102e260048036038101906102dd91906120db565b610929565b005b6102fe60048036038101906102f99190611cc1565b61098b565b60405161030b9190611c6e565b60405180910390f35b61032e6004803603810190610329919061215b565b610a74565b005b61034a600480360381019061034591906121b5565b610ab2565b6040516103579190611bcb565b60405180910390f35b61037a60048036038101906103759190611f82565b610b40565b005b5f634906490660e01b7bffffffffffffffffffffffffffffffffffffffffffffffffffffffff1916827bffffffffffffffffffffffffffffffffffffffffffffffffffffffff191614806103d557506103d482610bc2565b5b9050919050565b60605f80546103ea90612220565b80601f016020809104026020016040519081016040528092919081815260200182805461041690612220565b80156104615780601f1061043857610100808354040283529160200191610461565b820191905f5260205f20905b81548152906001019060200180831161044457829003601f168201915b5050505050905090565b5f61047582610ca3565b60045f8381526020019081526020015f205f9054906101000a900473ffffffffffffffffffffffffffffffffffffffff169050919050565b5f6104b782610710565b90508073ffffffffffffffffffffffffffffffffffffffff168373ffffffffffffffffffffffffffffffffffffffff1603610527576040517f08c379a000000000000000000000000000000000000000000000000000000000815260040161051e906122c0565b60405180910390fd5b8073ffffffffffffffffffffffffffffffffffffffff16610546610cee565b73ffffffffffffffffffffffffffffffffffffffff16148061057557506105748161056f610cee565b610ab2565b5b6105b4576040517f08c379a00000000000000000000000000000000000000000000000000000000081526004016105ab9061234e565b60405180910390fd5b6105be8383610cf5565b505050565b6105d46105ce610cee565b82610dab565b610613576040517f08c379a000000000000000000000000000000000000000000000000000000000815260040161060a906123dc565b60405180910390fd5b61061e838383610e3f565b505050565b600a5f9054906101000a900473ffffffffffffffffffffffffffffffffffffffff1673ffffffffffffffffffffffffffffffffffffffff163373ffffffffffffffffffffffffffffffffffffffff16146106b2576040517f08c379a00000000000000000000000000000000000000000000000000000000081526004016106a99061246a565b60405180910390fd5b60085f8154809291906106c4906124b5565b91905055505f60085490506106d9338261112b565b6106e3818361133e565b6106ec836113a4565b505050565b61070b83838360405180602001604052805f815250610929565b505050565b5f8061071b836113f1565b90505f73ffffffffffffffffffffffffffffffffffffffff168173ffffffffffffffffffffffffffffffffffffffff160361078b576040517f08c379a000000000000000000000000000000000000000000000000000000000815260040161078290612546565b60405180910390fd5b80915050919050565b5f8073ffffffffffffffffffffffffffffffffffffffff168273ffffffffffffffffffffffffffffffffffffffff1603610803576040517f08c379a00000000000000000000000000000000000000000000000000000000081526004016107fa906125d4565b60405180910390fd5b60035f8373ffffffffffffffffffffffffffffffffffffffff1673ffffffffffffffffffffffffffffffffffffffff1681526020019081526020015f20549050919050565b61085061142a565b6108595f6114a8565b565b5f60075f9054906101000a900473ffffffffffffffffffffffffffffffffffffffff16905090565b60606001805461089290612220565b80601f01602080910402602001604051908101604052809291908181526020018280546108be90612220565b80156109095780601f106108e057610100808354040283529160200191610909565b820191905f5260205f20905b8154815290600101906020018083116108ec57829003601f168201915b5050505050905090565b61092561091e610cee565b838361156b565b5050565b61093a610934610cee565b83610dab565b610979576040517f08c379a0000000000000000000000000000000000000000000000000000000008152600401610970906123dc565b60405180910390fd5b610985848484846116d2565b50505050565b60606109968261172e565b6109d5576040517f08c379a00000000000000000000000000000000000000000000000000000000081526004016109cc90612662565b60405180910390fd5b60095f8381526020019081526020015f2080546109f190612220565b80601f0160208091040260200160405190810160405280929190818152602001828054610a1d90612220565b8015610a685780601f10610a3f57610100808354040283529160200191610a68565b820191905f5260205f20905b815481529060010190602001808311610a4b57829003601f168201915b50505050509050919050565b610a7c61142a565b60085f815480929190610a8e906124b5565b91905055505f6008549050610aa3838261112b565b610aad818361133e565b505050565b5f60055f8473ffffffffffffffffffffffffffffffffffffffff1673ffffffffffffffffffffffffffffffffffffffff1681526020019081526020015f205f8373ffffffffffffffffffffffffffffffffffffffff1673ffffffffffffffffffffffffffffffffffffffff1681526020019081526020015f205f9054906101000a900460ff16905092915050565b610b4861142a565b5f73ffffffffffffffffffffffffffffffffffffffff168173ffffffffffffffffffffffffffffffffffffffff1603610bb6576040517f08c379a0000000000000000000000000000000000000000000000000000000008152600401610bad906126f0565b60405180910390fd5b610bbf816114a8565b50565b5f7f80ac58cd000000000000000000000000000000000000000000000000000000007bffffffffffffffffffffffffffffffffffffffffffffffffffffffff1916827bffffffffffffffffffffffffffffffffffffffffffffffffffffffff19161480610c8c57507f5b5e139f000000000000000000000000000000000000000000000000000000007bffffffffffffffffffffffffffffffffffffffffffffffffffffffff1916827bffffffffffffffffffffffffffffffffffffffffffffffffffffffff1916145b80610c9c5750610c9b8261176e565b5b9050919050565b610cac8161172e565b610ceb576040517f08c379a0000000000000000000000000000000000000000000000000000000008152600401610ce290612546565b60405180910390fd5b50565b5f33905090565b8160045f8381526020019081526020015f205f6101000a81548173ffffffffffffffffffffffffffffffffffffffff021916908373ffffffffffffffffffffffffffffffffffffffff160217905550808273ffffffffffffffffffffffffffffffffffffffff16610d6583610710565b73ffffffffffffffffffffffffffffffffffffffff167f8c5be1e5ebec7d5bd14f71427d1e84f3dd0314c0f7b2291e5b200ac8c7c3b92560405160405180910390a45050565b5f80610db683610710565b90508073ffffffffffffffffffffffffffffffffffffffff168473ffffffffffffffffffffffffffffffffffffffff161480610df85750610df78185610ab2565b5b80610e3657508373ffffffffffffffffffffffffffffffffffffffff16610e1e8461046b565b73ffffffffffffffffffffffffffffffffffffffff16145b91505092915050565b8273ffffffffffffffffffffffffffffffffffffffff16610e5f82610710565b73ffffffffffffffffffffffffffffffffffffffff1614610eb5576040517f08c379a0000000000000000000000000000000000000000000000000000000008152600401610eac9061277e565b60405180910390fd5b5f73ffffffffffffffffffffffffffffffffffffffff168273ffffffffffffffffffffffffffffffffffffffff1603610f23576040517f08c379a0000000000000000000000000000000000000000000000000000000008152600401610f1a9061280c565b60405180910390fd5b610f3083838360016117d7565b8273ffffffffffffffffffffffffffffffffffffffff16610f5082610710565b73ffffffffffffffffffffffffffffffffffffffff1614610fa6576040517f08c379a0000000000000000000000000000000000000000000000000000000008152600401610f9d9061277e565b60405180910390fd5b60045f8281526020019081526020015f205f6101000a81549073ffffffffffffffffffffffffffffffffffffffff0219169055600160035f8573ffffffffffffffffffffffffffffffffffffffff1673ffffffffffffffffffffffffffffffffffffffff1681526020019081526020015f205f8282540392505081905550600160035f8473ffffffffffffffffffffffffffffffffffffffff1673ffffffffffffffffffffffffffffffffffffffff1681526020019081526020015f205f82825401925050819055508160025f8381526020019081526020015f205f6101000a81548173ffffffffffffffffffffffffffffffffffffffff021916908373ffffffffffffffffffffffffffffffffffffffff160217905550808273ffffffffffffffffffffffffffffffffffffffff168473ffffffffffffffffffffffffffffffffffffffff167fddf252ad1be2c89b69c2b068fc378daa952ba7f163c4a11628f55a4df523b3ef60405160405180910390a461112683838360016117dd565b505050565b5f73ffffffffffffffffffffffffffffffffffffffff168273ffffffffffffffffffffffffffffffffffffffff1603611199576040517f08c379a000000000000000000000000000000000000000000000000000000000815260040161119090612874565b60405180910390fd5b6111a28161172e565b156111e2576040517f08c379a00000000000000000000000000000000000000000000000000000000081526004016111d9906128dc565b60405180910390fd5b6111ef5f838360016117d7565b6111f88161172e565b15611238576040517f08c379a000000000000000000000000000000000000000000000000000000000815260040161122f906128dc565b60405180910390fd5b600160035f8473ffffffffffffffffffffffffffffffffffffffff1673ffffffffffffffffffffffffffffffffffffffff1681526020019081526020015f205f82825401925050819055508160025f8381526020019081526020015f205f6101000a81548173ffffffffffffffffffffffffffffffffffffffff021916908373ffffffffffffffffffffffffffffffffffffffff160217905550808273ffffffffffffffffffffffffffffffffffffffff165f73ffffffffffffffffffffffffffffffffffffffff167fddf252ad1be2c89b69c2b068fc378daa952ba7f163c4a11628f55a4df523b3ef60405160405180910390a461133a5f838360016117dd565b5050565b8060095f8481526020019081526020015f20908161135c9190612a97565b50818160405161136c9190612ba0565b60405180910390207f6bb7ff708619ba0610cba295a58592e0451dee2622938c8755667688daf3529b60405160405180910390a35050565b6113ad816117e3565b5f60065f8381526020019081526020015f2080546113ca90612220565b9050146113ee5760065f8281526020019081526020015f205f6113ed9190611ac8565b5b50565b5f60025f8381526020019081526020015f205f9054906101000a900473ffffffffffffffffffffffffffffffffffffffff169050919050565b611432610cee565b73ffffffffffffffffffffffffffffffffffffffff1661145061085b565b73ffffffffffffffffffffffffffffffffffffffff16146114a6576040517f08c379a000000000000000000000000000000000000000000000000000000000815260040161149d90612c00565b60405180910390fd5b565b5f60075f9054906101000a900473ffffffffffffffffffffffffffffffffffffffff1690508160075f6101000a81548173ffffffffffffffffffffffffffffffffffffffff021916908373ffffffffffffffffffffffffffffffffffffffff1602179055508173ffffffffffffffffffffffffffffffffffffffff168173ffffffffffffffffffffffffffffffffffffffff167f8be0079c531659141344cd1fd0a4f28419497f9722a3daafe3b4186f6b6457e060405160405180910390a35050565b8173ffffffffffffffffffffffffffffffffffffffff168373ffffffffffffffffffffffffffffffffffffffff16036115d9576040517f08c379a00000000000000000000000000000000000000000000000000000000081526004016115d090612c68565b60405180910390fd5b8060055f8573ffffffffffffffffffffffffffffffffffffffff1673ffffffffffffffffffffffffffffffffffffffff1681526020019081526020015f205f8473ffffffffffffffffffffffffffffffffffffffff1673ffffffffffffffffffffffffffffffffffffffff1681526020019081526020015f205f6101000a81548160ff0219169083151502179055508173ffffffffffffffffffffffffffffffffffffffff168373ffffffffffffffffffffffffffffffffffffffff167f17307eab39ab6107e8899845ad3d59bd9653f200f220920489ca2b5937696c31836040516116c59190611bcb565b60405180910390a3505050565b6116dd848484610e3f565b6116e984848484611924565b611728576040517f08c379a000000000000000000000000000000000000000000000000000000000815260040161171f90612cf6565b60405180910390fd5b50505050565b5f8073ffffffffffffffffffffffffffffffffffffffff1661174f836113f1565b73ffffffffffffffffffffffffffffffffffffffff1614159050919050565b5f7f01ffc9a7000000000000000000000000000000000000000000000000000000007bffffffffffffffffffffffffffffffffffffffffffffffffffffffff1916827bffffffffffffffffffffffffffffffffffffffffffffffffffffffff1916149050919050565b50505050565b50505050565b5f6117ed82610710565b90506117fc815f8460016117d7565b61180582610710565b905060045f8381526020019081526020015f205f6101000a81549073ffffffffffffffffffffffffffffffffffffffff0219169055600160035f8373ffffffffffffffffffffffffffffffffffffffff1673ffffffffffffffffffffffffffffffffffffffff1681526020019081526020015f205f828254039250508190555060025f8381526020019081526020015f205f6101000a81549073ffffffffffffffffffffffffffffffffffffffff0219169055815f73ffffffffffffffffffffffffffffffffffffffff168273ffffffffffffffffffffffffffffffffffffffff167fddf252ad1be2c89b69c2b068fc378daa952ba7f163c4a11628f55a4df523b3ef60405160405180910390a4611920815f8460016117dd565b5050565b5f6119448473ffffffffffffffffffffffffffffffffffffffff16611aa6565b15611a99578373ffffffffffffffffffffffffffffffffffffffff1663150b7a0261196d610cee565b8786866040518563ffffffff1660e01b815260040161198f9493929190612d66565b6020604051808303815f875af19250505080156119ca57506040513d601f19601f820116820180604052508101906119c79190612dc4565b60015b611a49573d805f81146119f8576040519150601f19603f3d011682016040523d82523d5f602084013e6119fd565b606091505b505f815103611a41576040517f08c379a0000000000000000000000000000000000000000000000000000000008152600401611a3890612cf6565b60405180910390fd5b805181602001fd5b63150b7a0260e01b7bffffffffffffffffffffffffffffffffffffffffffffffffffffffff1916817bffffffffffffffffffffffffffffffffffffffffffffffffffffffff191614915050611a9e565b600190505b949350505050565b5f808273ffffffffffffffffffffffffffffffffffffffff163b119050919050565b508054611ad490612220565b5f825580601f10611ae55750611b02565b601f0160209004905f5260205f2090810190611b019190611b05565b5b50565b5b80821115611b1c575f815f905550600101611b06565b5090565b5f604051905090565b5f80fd5b5f80fd5b5f7fffffffff0000000000000000000000000000000000000000000000000000000082169050919050565b611b6581611b31565b8114611b6f575f80fd5b50565b5f81359050611b8081611b5c565b92915050565b5f60208284031215611b9b57611b9a611b29565b5b5f611ba884828501611b72565b91505092915050565b5f8115159050919050565b611bc581611bb1565b82525050565b5f602082019050611bde5f830184611bbc565b92915050565b5f81519050919050565b5f82825260208201905092915050565b5f5b83811015611c1b578082015181840152602081019050611c00565b5f8484015250505050565b5f601f19601f8301169050919050565b5f611c4082611be4565b611c4a8185611bee565b9350611c5a818560208601611bfe565b611c6381611c26565b840191505092915050565b5f6020820190508181035f830152611c868184611c36565b905092915050565b5f819050919050565b611ca081611c8e565b8114611caa575f80fd5b50565b5f81359050611cbb81611c97565b92915050565b5f60208284031215611cd657611cd5611b29565b5b5f611ce384828501611cad565b91505092915050565b5f73ffffffffffffffffffffffffffffffffffffffff82169050919050565b5f611d1582611cec565b9050919050565b611d2581611d0b565b82525050565b5f602082019050611d3e5f830184611d1c565b92915050565b611d4d81611d0b565b8114611d57575f80fd5b50565b5f81359050611d6881611d44565b92915050565b5f8060408385031215611d8457611d83611b29565b5b5f611d9185828601611d5a565b9250506020611da285828601611cad565b9150509250929050565b5f805f60608486031215611dc357611dc2611b29565b5b5f611dd086828701611d5a565b9350506020611de186828701611d5a565b9250506040611df286828701611cad565b9150509250925092565b5f80fd5b5f80fd5b7f4e487b71000000000000000000000000000000000000000000000000000000005f52604160045260245ffd5b611e3a82611c26565b810181811067ffffffffffffffff82111715611e5957611e58611e04565b5b80604052505050565b5f611e6b611b20565b9050611e778282611e31565b919050565b5f67ffffffffffffffff821115611e9657611e95611e04565b5b611e9f82611c26565b9050602081019050919050565b828183375f83830152505050565b5f611ecc611ec784611e7c565b611e62565b905082815260208101848484011115611ee857611ee7611e00565b5b611ef3848285611eac565b509392505050565b5f82601f830112611f0f57611f0e611dfc565b5b8135611f1f848260208601611eba565b91505092915050565b5f8060408385031215611f3e57611f3d611b29565b5b5f611f4b85828601611cad565b925050602083013567ffffffffffffffff811115611f6c57611f6b611b2d565b5b611f7885828601611efb565b9150509250929050565b5f60208284031215611f9757611f96611b29565b5b5f611fa484828501611d5a565b91505092915050565b611fb681611c8e565b82525050565b5f602082019050611fcf5f830184611fad565b92915050565b611fde81611bb1565b8114611fe8575f80fd5b50565b5f81359050611ff981611fd5565b92915050565b5f806040838503121561201557612014611b29565b5b5f61202285828601611d5a565b925050602061203385828601611feb565b9150509250929050565b5f67ffffffffffffffff82111561205757612056611e04565b5b61206082611c26565b9050602081019050919050565b5f61207f61207a8461203d565b611e62565b90508281526020810184848401111561209b5761209a611e00565b5b6120a6848285611eac565b509392505050565b5f82601f8301126120c2576120c1611dfc565b5b81356120d284826020860161206d565b91505092915050565b5f805f80608085870312156120f3576120f2611b29565b5b5f61210087828801611d5a565b945050602061211187828801611d5a565b935050604061212287828801611cad565b925050606085013567ffffffffffffffff81111561214357612142611b2d565b5b61214f878288016120ae565b91505092959194509250565b5f806040838503121561217157612170611b29565b5b5f61217e85828601611d5a565b925050602083013567ffffffffffffffff81111561219f5761219e611b2d565b5b6121ab85828601611efb565b9150509250929050565b5f80604083850312156121cb576121ca611b29565b5b5f6121d885828601611d5a565b92505060206121e985828601611d5a565b9150509250929050565b7f4e487b71000000000000000000000000000000000000000000000000000000005f52602260045260245ffd5b5f600282049050600182168061223757607f821691505b60208210810361224a576122496121f3565b5b50919050565b7f4552433732313a20617070726f76616c20746f2063757272656e74206f776e655f8201527f7200000000000000000000000000000000000000000000000000000000000000602082015250565b5f6122aa602183611bee565b91506122b582612250565b604082019050919050565b5f6020820190508181035f8301526122d78161229e565b9050919050565b7f4552433732313a20617070726f76652063616c6c6572206973206e6f7420746f5f8201527f6b656e206f776e6572206f7220617070726f76656420666f7220616c6c000000602082015250565b5f612338603d83611bee565b9150612343826122de565b604082019050919050565b5f6020820190508181035f8301526123658161232c565b9050919050565b7f4552433732313a2063616c6c6572206973206e6f7420746f6b656e206f776e655f8201527f72206f7220617070726f76656400000000000000000000000000000000000000602082015250565b5f6123c6602d83611bee565b91506123d18261236c565b604082019050919050565b5f6020820190508181035f8301526123f3816123ba565b9050919050565b7f7472616e7366657246726f6d4554483a206f6e6c7920546f6b656e42726964675f8201527f652063616e2063616c6c00000000000000000000000000000000000000000000602082015250565b5f612454602a83611bee565b915061245f826123fa565b604082019050919050565b5f6020820190508181035f83015261248181612448565b9050919050565b7f4e487b71000000000000000000000000000000000000000000000000000000005f52601160045260245ffd5b5f6124bf82611c8e565b91507fffffffffffffffffffffffffffffffffffffffffffffffffffffffffffffffff82036124f1576124f0612488565b5b600182019050919050565b7f4552433732313a20696e76616c696420746f6b656e20494400000000000000005f82015250565b5f612530601883611bee565b915061253b826124fc565b602082019050919050565b5f6020820190508181035f83015261255d81612524565b9050919050565b7f4552433732313a2061646472657373207a65726f206973206e6f7420612076615f8201527f6c6964206f776e65720000000000000000000000000000000000000000000000602082015250565b5f6125be602983611bee565b91506125c982612564565b604082019050919050565b5f6020820190508181035f8301526125eb816125b2565b9050919050565b7f4552433732314d657461646174613a2055524920717565727920666f72206e6f5f8201527f6e6578697374656e7420746f6b656e0000000000000000000000000000000000602082015250565b5f61264c602f83611bee565b9150612657826125f2565b604082019050919050565b5f6020820190508181035f83015261267981612640565b9050919050565b7f4f776e61626c653a206e6577206f776e657220697320746865207a65726f20615f8201527f6464726573730000000000000000000000000000000000000000000000000000602082015250565b5f6126da602683611bee565b91506126e582612680565b604082019050919050565b5f6020820190508181035f830152612707816126ce565b9050919050565b7f4552433732313a207472616e736665722066726f6d20696e636f7272656374205f8201527f6f776e6572000000000000000000000000000000000000000000000000000000602082015250565b5f612768602583611bee565b91506127738261270e565b604082019050919050565b5f6020820190508181035f8301526127958161275c565b9050919050565b7f4552433732313a207472616e7366657220746f20746865207a65726f206164645f8201527f7265737300000000000000000000000000000000000000000000000000000000602082015250565b5f6127f6602483611bee565b91506128018261279c565b604082019050919050565b5f6020820190508181035f830152612823816127ea565b9050919050565b7f4552433732313a206d696e7420746f20746865207a65726f20616464726573735f82015250565b5f61285e602083611bee565b91506128698261282a565b602082019050919050565b5f6020820190508181035f83015261288b81612852565b9050919050565b7f4552433732313a20746f6b656e20616c7265616479206d696e746564000000005f82015250565b5f6128c6601c83611bee565b91506128d182612892565b602082019050919050565b5f6020820190508181035f8301526128f3816128ba565b9050919050565b5f819050815f5260205f209050919050565b5f6020601f8301049050919050565b5f82821b905092915050565b5f600883026129567fffffffffffffffffffffffffffffffffffffffffffffffffffffffffffffffff8261291b565b612960868361291b565b95508019841693508086168417925050509392505050565b5f819050919050565b5f61299b61299661299184611c8e565b612978565b611c8e565b9050919050565b5f819050919050565b6129b483612981565b6129c86129c0826129a2565b848454612927565b825550505050565b5f90565b6129dc6129d0565b6129e78184846129ab565b505050565b5b81811015612a0a576129ff5f826129d4565b6001810190506129ed565b5050565b601f821115612a4f57612a20816128fa565b612a298461290c565b81016020851015612a38578190505b612a4c612a448561290c565b8301826129ec565b50505b505050565b5f82821c905092915050565b5f612a6f5f1984600802612a54565b1980831691505092915050565b5f612a878383612a60565b9150826002028217905092915050565b612aa082611be4565b67ffffffffffffffff811115612ab957612ab8611e04565b5b612ac38254612220565b612ace828285612a0e565b5f60209050601f831160018114612aff575f8415612aed578287015190505b612af78582612a7c565b865550612b5e565b601f198416612b0d866128fa565b5f5b82811015612b3457848901518255600182019150602085019450602081019050612b0f565b86831015612b515784890151612b4d601f891682612a60565b8355505b6001600288020188555050505b505050505050565b5f81905092915050565b5f612b7a82611be4565b612b848185612b66565b9350612b94818560208601611bfe565b80840191505092915050565b5f612bab8284612b70565b915081905092915050565b7f4f776e61626c653a2063616c6c6572206973206e6f7420746865206f776e65725f82015250565b5f612bea602083611bee565b9150612bf582612bb6565b602082019050919050565b5f6020820190508181035f830152612c1781612bde565b9050919050565b7f4552433732313a20617070726f766520746f2063616c6c6572000000000000005f82015250565b5f612c52601983611bee565b9150612c5d82612c1e565b602082019050919050565b5f6020820190508181035f830152612c7f81612c46565b9050919050565b7f4552433732313a207472616e7366657220746f206e6f6e2045524337323152655f8201527f63656976657220696d706c656d656e7465720000000000000000000000000000602082015250565b5f612ce0603283611bee565b9150612ceb82612c86565b604082019050919050565b5f6020820190508181035f830152612d0d81612cd4565b9050919050565b5f81519050919050565b5f82825260208201905092915050565b5f612d3882612d14565b612d428185612d1e565b9350612d52818560208601611bfe565b612d5b81611c26565b840191505092915050565b5f608082019050612d795f830187611d1c565b612d866020830186611d1c565b612d936040830185611fad565b8181036060830152612da58184612d2e565b905095945050505050565b5f81519050612dbe81611b5c565b92915050565b5f60208284031215612dd957612dd8611b29565b5b5f612de684828501612db0565b9150509291505056fea2646970667358221220a1f068581c494d84a0ad4c3c912306d9a33356d6099bd90eaf8d7fe3a0490bd064736f6c63430008140033",
  "immutableReferences": {},
  "source": "// SPDX-License-Identifier: MIT\npragma solidity ^0.8.0;\n\nimport \"@openzeppelin/contracts/token/ERC721/extensions/ERC721URIStorage.sol\";\nimport \"@openzeppelin/contracts/access/Ownable.sol\";\n\ncontract CrossChainNFTBSC is ERC721URIStorage, Ownable {\n    // NFT ID \n    uint256 private _tokenIds;\n\n    // NFT ID  NFT \n    mapping(uint256 => string) private _tokenURIs;\n\n    // TokenBridge \n    address private _tokenBridge;\n    event URI(string indexed _value, uint256 indexed _id);\n\n    // \n    constructor(\n        string memory name,\n        string memory symbol,\n        address tokenBridge\n    ) ERC721(name, symbol) {\n        _tokenBridge = tokenBridge;\n    }\n\n    //  NFT\n    function mint(address to, string memory nftURI) external onlyOwner {\n        _tokenIds++;\n        uint256 tokenId = _tokenIds;\n        _mint(to, tokenId);\n        _setTokenURI(tokenId, nftURI);\n    }\n\n    //  NFT\n    function transferFromETH(uint256 tokenId, string memory nftURI) external {\n        require(\n            msg.sender == _tokenBridge,\n            \"transferFromETH: only TokenBridge can call\"\n        );\n        _tokenIds++;\n        uint256 newTokenId = _tokenIds;\n        _mint(msg.sender, newTokenId);\n        _setTokenURI(newTokenId, nftURI);\n        _burn(tokenId);\n    }\n\n    //  NFT \n\n    function _setTokenURI(\n        uint256 tokenId,\n        string memory nftURI\n    ) internal override {\n        _tokenURIs[tokenId] = nftURI;\n        emit URI(nftURI, tokenId);\n    }\n\n    //  NFT \n    function tokenURI(\n        uint256 tokenId\n    ) public view virtual override returns (string memory) {\n        require(\n            _exists(tokenId),\n            \"ERC721Metadata: URI query for nonexistent token\"\n        );\n        return _tokenURIs[tokenId];\n    }\n}\n",
  "sourcePath": "/Users/hailiting/Desktop/web3_demo/contract/contracts/CrossChainNFTBSC.sol",
  "compiler": {
    "name": "solc",
    "version": "0.8.20+commit.a1b79de6.Emscripten.clang"
  },
  "schemaVersion": "3.4.14",
  "updatedAt": "2023-07-09T14:17:23.512Z",
  "devdoc": {
    "events": {
      "Approval(address,address,uint256)": {
        "details": "Emitted when `owner` enables `approved` to manage the `tokenId` token."
      },
      "ApprovalForAll(address,address,bool)": {
        "details": "Emitted when `owner` enables or disables (`approved`) `operator` to manage all of its assets."
      },
      "BatchMetadataUpdate(uint256,uint256)": {
        "details": "This event emits when the metadata of a range of tokens is changed. So that the third-party platforms such as NFT market could timely update the images and related attributes of the NFTs."
      },
      "MetadataUpdate(uint256)": {
        "details": "This event emits when the metadata of a token is changed. So that the third-party platforms such as NFT market could timely update the images and related attributes of the NFT."
      },
      "Transfer(address,address,uint256)": {
        "details": "Emitted when `tokenId` token is transferred from `from` to `to`."
      }
    },
    "kind": "dev",
    "methods": {
      "approve(address,uint256)": {
        "details": "See {IERC721-approve}."
      },
      "balanceOf(address)": {
        "details": "See {IERC721-balanceOf}."
      },
      "getApproved(uint256)": {
        "details": "See {IERC721-getApproved}."
      },
      "isApprovedForAll(address,address)": {
        "details": "See {IERC721-isApprovedForAll}."
      },
      "name()": {
        "details": "See {IERC721Metadata-name}."
      },
      "owner()": {
        "details": "Returns the address of the current owner."
      },
      "ownerOf(uint256)": {
        "details": "See {IERC721-ownerOf}."
      },
      "renounceOwnership()": {
        "details": "Leaves the contract without owner. It will not be possible to call `onlyOwner` functions. Can only be called by the current owner. NOTE: Renouncing ownership will leave the contract without an owner, thereby disabling any functionality that is only available to the owner."
      },
      "safeTransferFrom(address,address,uint256)": {
        "details": "See {IERC721-safeTransferFrom}."
      },
      "safeTransferFrom(address,address,uint256,bytes)": {
        "details": "See {IERC721-safeTransferFrom}."
      },
      "setApprovalForAll(address,bool)": {
        "details": "See {IERC721-setApprovalForAll}."
      },
      "supportsInterface(bytes4)": {
        "details": "See {IERC165-supportsInterface}"
      },
      "symbol()": {
        "details": "See {IERC721Metadata-symbol}."
      },
      "tokenURI(uint256)": {
        "details": "See {IERC721Metadata-tokenURI}."
      },
      "transferFrom(address,address,uint256)": {
        "details": "See {IERC721-transferFrom}."
      },
      "transferOwnership(address)": {
        "details": "Transfers ownership of the contract to a new account (`newOwner`). Can only be called by the current owner."
      }
    },
    "version": 1
  },
  "userdoc": {
    "kind": "user",
    "methods": {},
    "version": 1
  }
}