{
  "contractName": "CrossChainNFT",
  "abi": [
    {
      "inputs": [
        {
          "internalType": "string",
          "name": "name",
          "type": "string"
        },
        {
          "internalType": "string",
          "name": "symbol",
          "type": "string"
        },
        {
          "internalType": "address",
          "name": "tokenBridge",
          "type": "address"
        }
      ],
      "stateMutability": "nonpayable",
      "type": "constructor"
    },
    {
      "anonymous": false,
      "inputs": [
        {
          "indexed": true,
          "internalType": "address",
          "name": "owner",
          "type": "address"
        },
        {
          "indexed": true,
          "internalType": "address",
          "name": "approved",
          "type": "address"
        },
        {
          "indexed": true,
          "internalType": "uint256",
          "name": "tokenId",
          "type": "uint256"
        }
      ],
      "name": "Approval",
      "type": "event"
    },
    {
      "anonymous": false,
      "inputs": [
        {
          "indexed": true,
          "internalType": "address",
          "name": "owner",
          "type": "address"
        },
        {
          "indexed": true,
          "internalType": "address",
          "name": "operator",
          "type": "address"
        },
        {
          "indexed": false,
          "internalType": "bool",
          "name": "approved",
          "type": "bool"
        }
      ],
      "name": "ApprovalForAll",
      "type": "event"
    },
    {
      "anonymous": false,
      "inputs": [
        {
          "indexed": false,
          "internalType": "string",
          "name": "uri",
          "type": "string"
        },
        {
          "indexed": true,
          "internalType": "uint256",
          "name": "tokenId",
          "type": "uint256"
        }
      ],
      "name": "NFTURI",
      "type": "event"
    },
    {
      "anonymous": false,
      "inputs": [
        {
          "indexed": true,
          "internalType": "address",
          "name": "previousOwner",
          "type": "address"
        },
        {
          "indexed": true,
          "internalType": "address",
          "name": "newOwner",
          "type": "address"
        }
      ],
      "name": "OwnershipTransferred",
      "type": "event"
    },
    {
      "anonymous": false,
      "inputs": [
        {
          "indexed": true,
          "internalType": "address",
          "name": "from",
          "type": "address"
        },
        {
          "indexed": true,
          "internalType": "address",
          "name": "to",
          "type": "address"
        },
        {
          "indexed": true,
          "internalType": "uint256",
          "name": "tokenId",
          "type": "uint256"
        }
      ],
      "name": "Transfer",
      "type": "event"
    },
    {
      "inputs": [
        {
          "internalType": "address",
          "name": "to",
          "type": "address"
        },
        {
          "internalType": "uint256",
          "name": "tokenId",
          "type": "uint256"
        }
      ],
      "name": "approve",
      "outputs": [],
      "stateMutability": "nonpayable",
      "type": "function"
    },
    {
      "inputs": [
        {
          "internalType": "address",
          "name": "owner",
          "type": "address"
        }
      ],
      "name": "balanceOf",
      "outputs": [
        {
          "internalType": "uint256",
          "name": "",
          "type": "uint256"
        }
      ],
      "stateMutability": "view",
      "type": "function"
    },
    {
      "inputs": [
        {
          "internalType": "uint256",
          "name": "tokenId",
          "type": "uint256"
        }
      ],
      "name": "getApproved",
      "outputs": [
        {
          "internalType": "address",
          "name": "",
          "type": "address"
        }
      ],
      "stateMutability": "view",
      "type": "function"
    },
    {
      "inputs": [
        {
          "internalType": "address",
          "name": "owner",
          "type": "address"
        },
        {
          "internalType": "address",
          "name": "operator",
          "type": "address"
        }
      ],
      "name": "isApprovedForAll",
      "outputs": [
        {
          "internalType": "bool",
          "name": "",
          "type": "bool"
        }
      ],
      "stateMutability": "view",
      "type": "function"
    },
    {
      "inputs": [],
      "name": "name",
      "outputs": [
        {
          "internalType": "string",
          "name": "",
          "type": "string"
        }
      ],
      "stateMutability": "view",
      "type": "function"
    },
    {
      "inputs": [],
      "name": "owner",
      "outputs": [
        {
          "internalType": "address",
          "name": "",
          "type": "address"
        }
      ],
      "stateMutability": "view",
      "type": "function"
    },
    {
      "inputs": [
        {
          "internalType": "uint256",
          "name": "tokenId",
          "type": "uint256"
        }
      ],
      "name": "ownerOf",
      "outputs": [
        {
          "internalType": "address",
          "name": "",
          "type": "address"
        }
      ],
      "stateMutability": "view",
      "type": "function"
    },
    {
      "inputs": [],
      "name": "renounceOwnership",
      "outputs": [],
      "stateMutability": "nonpayable",
      "type": "function"
    },
    {
      "inputs": [
        {
          "internalType": "address",
          "name": "from",
          "type": "address"
        },
        {
          "internalType": "address",
          "name": "to",
          "type": "address"
        },
        {
          "internalType": "uint256",
          "name": "tokenId",
          "type": "uint256"
        }
      ],
      "name": "safeTransferFrom",
      "outputs": [],
      "stateMutability": "nonpayable",
      "type": "function"
    },
    {
      "inputs": [
        {
          "internalType": "address",
          "name": "from",
          "type": "address"
        },
        {
          "internalType": "address",
          "name": "to",
          "type": "address"
        },
        {
          "internalType": "uint256",
          "name": "tokenId",
          "type": "uint256"
        },
        {
          "internalType": "bytes",
          "name": "data",
          "type": "bytes"
        }
      ],
      "name": "safeTransferFrom",
      "outputs": [],
      "stateMutability": "nonpayable",
      "type": "function"
    },
    {
      "inputs": [
        {
          "internalType": "address",
          "name": "operator",
          "type": "address"
        },
        {
          "internalType": "bool",
          "name": "approved",
          "type": "bool"
        }
      ],
      "name": "setApprovalForAll",
      "outputs": [],
      "stateMutability": "nonpayable",
      "type": "function"
    },
    {
      "inputs": [
        {
          "internalType": "bytes4",
          "name": "interfaceId",
          "type": "bytes4"
        }
      ],
      "name": "supportsInterface",
      "outputs": [
        {
          "internalType": "bool",
          "name": "",
          "type": "bool"
        }
      ],
      "stateMutability": "view",
      "type": "function"
    },
    {
      "inputs": [],
      "name": "symbol",
      "outputs": [
        {
          "internalType": "string",
          "name": "",
          "type": "string"
        }
      ],
      "stateMutability": "view",
      "type": "function"
    },
    {
      "inputs": [
        {
          "internalType": "address",
          "name": "from",
          "type": "address"
        },
        {
          "internalType": "address",
          "name": "to",
          "type": "address"
        },
        {
          "internalType": "uint256",
          "name": "tokenId",
          "type": "uint256"
        }
      ],
      "name": "transferFrom",
      "outputs": [],
      "stateMutability": "nonpayable",
      "type": "function"
    },
    {
      "inputs": [
        {
          "internalType": "address",
          "name": "newOwner",
          "type": "address"
        }
      ],
      "name": "transferOwnership",
      "outputs": [],
      "stateMutability": "nonpayable",
      "type": "function"
    },
    {
      "inputs": [
        {
          "internalType": "address",
          "name": "to",
          "type": "address"
        },
        {
          "internalType": "string",
          "name": "nftURI",
          "type": "string"
        }
      ],
      "name": "mintNFT",
      "outputs": [],
      "stateMutability": "nonpayable",
      "type": "function"
    },
    {
      "inputs": [
        {
          "internalType": "uint256",
          "name": "tokenId",
          "type": "uint256"
        },
        {
          "internalType": "bytes32",
          "name": "recipient",
          "type": "bytes32"
        }
      ],
      "name": "transferToBSC",
      "outputs": [],
      "stateMutability": "nonpayable",
      "type": "function"
    },
    {
      "inputs": [
        {
          "internalType": "uint256",
          "name": "tokenId",
          "type": "uint256"
        }
      ],
      "name": "tokenURI",
      "outputs": [
        {
          "internalType": "string",
          "name": "",
          "type": "string"
        }
      ],
      "stateMutability": "view",
      "type": "function"
    }
  ],
  "bytecode": "0x608060405234801562000010575f80fd5b506040516200351738038062003517833981810160405281019062000036919062000376565b8282815f908162000048919062000644565b5080600190816200005a919062000644565b5050506200007d62000071620000c660201b60201c565b620000cd60201b60201c565b8060095f6101000a81548173ffffffffffffffffffffffffffffffffffffffff021916908373ffffffffffffffffffffffffffffffffffffffff16021790555050505062000728565b5f33905090565b5f60065f9054906101000a900473ffffffffffffffffffffffffffffffffffffffff1690508160065f6101000a81548173ffffffffffffffffffffffffffffffffffffffff021916908373ffffffffffffffffffffffffffffffffffffffff1602179055508173ffffffffffffffffffffffffffffffffffffffff168173ffffffffffffffffffffffffffffffffffffffff167f8be0079c531659141344cd1fd0a4f28419497f9722a3daafe3b4186f6b6457e060405160405180910390a35050565b5f604051905090565b5f80fd5b5f80fd5b5f80fd5b5f80fd5b5f601f19601f8301169050919050565b7f4e487b71000000000000000000000000000000000000000000000000000000005f52604160045260245ffd5b620001f182620001a9565b810181811067ffffffffffffffff82111715620002135762000212620001b9565b5b80604052505050565b5f6200022762000190565b9050620002358282620001e6565b919050565b5f67ffffffffffffffff821115620002575762000256620001b9565b5b6200026282620001a9565b9050602081019050919050565b5f5b838110156200028e57808201518184015260208101905062000271565b5f8484015250505050565b5f620002af620002a9846200023a565b6200021c565b905082815260208101848484011115620002ce57620002cd620001a5565b5b620002db8482856200026f565b509392505050565b5f82601f830112620002fa57620002f9620001a1565b5b81516200030c84826020860162000299565b91505092915050565b5f73ffffffffffffffffffffffffffffffffffffffff82169050919050565b5f620003408262000315565b9050919050565b620003528162000334565b81146200035d575f80fd5b50565b5f81519050620003708162000347565b92915050565b5f805f6060848603121562000390576200038f62000199565b5b5f84015167ffffffffffffffff811115620003b057620003af6200019d565b5b620003be86828701620002e3565b935050602084015167ffffffffffffffff811115620003e257620003e16200019d565b5b620003f086828701620002e3565b9250506040620004038682870162000360565b9150509250925092565b5f81519050919050565b7f4e487b71000000000000000000000000000000000000000000000000000000005f52602260045260245ffd5b5f60028204905060018216806200045c57607f821691505b60208210810362000472576200047162000417565b5b50919050565b5f819050815f5260205f209050919050565b5f6020601f8301049050919050565b5f82821b905092915050565b5f60088302620004d67fffffffffffffffffffffffffffffffffffffffffffffffffffffffffffffffff8262000499565b620004e2868362000499565b95508019841693508086168417925050509392505050565b5f819050919050565b5f819050919050565b5f6200052c620005266200052084620004fa565b62000503565b620004fa565b9050919050565b5f819050919050565b62000547836200050c565b6200055f620005568262000533565b848454620004a5565b825550505050565b5f90565b6200057562000567565b620005828184846200053c565b505050565b5b81811015620005a9576200059d5f826200056b565b60018101905062000588565b5050565b601f821115620005f857620005c28162000478565b620005cd846200048a565b81016020851015620005dd578190505b620005f5620005ec856200048a565b83018262000587565b50505b505050565b5f82821c905092915050565b5f6200061a5f1984600802620005fd565b1980831691505092915050565b5f62000634838362000609565b9150826002028217905092915050565b6200064f826200040d565b67ffffffffffffffff8111156200066b576200066a620001b9565b5b62000677825462000444565b62000684828285620005ad565b5f60209050601f831160018114620006ba575f8415620006a5578287015190505b620006b1858262000627565b86555062000720565b601f198416620006ca8662000478565b5f5b82811015620006f357848901518255600182019150602085019450602081019050620006cc565b868310156200071357848901516200070f601f89168262000609565b8355505b6001600288020188555050505b505050505050565b612de180620007365f395ff3fe608060405234801561000f575f80fd5b5060043610610114575f3560e01c8063715018a6116100a0578063b88d4fde1161006f578063b88d4fde146102c8578063c87b56dd146102e4578063e985e9c514610314578063eacabe1414610344578063f2fde38b1461036057610114565b8063715018a6146102665780638da5cb5b1461027057806395d89b411461028e578063a22cb465146102ac57610114565b806323b872dd116100e757806323b872dd146101b257806342842e0e146101ce5780636352211e146101ea57806370a082311461021a57806370ced9d51461024a57610114565b806301ffc9a71461011857806306fdde0314610148578063081812fc14610166578063095ea7b314610196575b5f80fd5b610132600480360381019061012d9190611b1b565b61037c565b60405161013f9190611b60565b60405180910390f35b61015061045d565b60405161015d9190611c03565b60405180910390f35b610180600480360381019061017b9190611c56565b6104ec565b60405161018d9190611cc0565b60405180910390f35b6101b060048036038101906101ab9190611d03565b61052e565b005b6101cc60048036038101906101c79190611d41565b610644565b005b6101e860048036038101906101e39190611d41565b6106a4565b005b61020460048036038101906101ff9190611c56565b6106c3565b6040516102119190611cc0565b60405180910390f35b610234600480360381019061022f9190611d91565b610747565b6040516102419190611dcb565b60405180910390f35b610264600480360381019061025f9190611e17565b6107fb565b005b61026e61096e565b005b610278610981565b6040516102859190611cc0565b60405180910390f35b6102966109a9565b6040516102a39190611c03565b60405180910390f35b6102c660048036038101906102c19190611e7f565b610a39565b005b6102e260048036038101906102dd9190611fe9565b610a4f565b005b6102fe60048036038101906102f99190611c56565b610ab1565b60405161030b9190611c03565b60405180910390f35b61032e60048036038101906103299190612069565b610b9a565b60405161033b9190611b60565b60405180910390f35b61035e60048036038101906103599190612145565b610c28565b005b61037a60048036038101906103759190611d91565b610c66565b005b5f7f80ac58cd000000000000000000000000000000000000000000000000000000007bffffffffffffffffffffffffffffffffffffffffffffffffffffffff1916827bffffffffffffffffffffffffffffffffffffffffffffffffffffffff1916148061044657507f5b5e139f000000000000000000000000000000000000000000000000000000007bffffffffffffffffffffffffffffffffffffffffffffffffffffffff1916827bffffffffffffffffffffffffffffffffffffffffffffffffffffffff1916145b80610456575061045582610ce8565b5b9050919050565b60605f805461046b906121cc565b80601f0160208091040260200160405190810160405280929190818152602001828054610497906121cc565b80156104e25780601f106104b9576101008083540402835291602001916104e2565b820191905f5260205f20905b8154815290600101906020018083116104c557829003601f168201915b5050505050905090565b5f6104f682610d51565b60045f8381526020019081526020015f205f9054906101000a900473ffffffffffffffffffffffffffffffffffffffff169050919050565b5f610538826106c3565b90508073ffffffffffffffffffffffffffffffffffffffff168373ffffffffffffffffffffffffffffffffffffffff16036105a8576040517f08c379a000000000000000000000000000000000000000000000000000000000815260040161059f9061226c565b60405180910390fd5b8073ffffffffffffffffffffffffffffffffffffffff166105c7610d9c565b73ffffffffffffffffffffffffffffffffffffffff1614806105f657506105f5816105f0610d9c565b610b9a565b5b610635576040517f08c379a000000000000000000000000000000000000000000000000000000000815260040161062c906122fa565b60405180910390fd5b61063f8383610da3565b505050565b61065561064f610d9c565b82610e59565b610694576040517f08c379a000000000000000000000000000000000000000000000000000000000815260040161068b90612388565b60405180910390fd5b61069f838383610eed565b505050565b6106be83838360405180602001604052805f815250610a4f565b505050565b5f806106ce836111d9565b90505f73ffffffffffffffffffffffffffffffffffffffff168173ffffffffffffffffffffffffffffffffffffffff160361073e576040517f08c379a0000000000000000000000000000000000000000000000000000000008152600401610735906123f0565b60405180910390fd5b80915050919050565b5f8073ffffffffffffffffffffffffffffffffffffffff168273ffffffffffffffffffffffffffffffffffffffff16036107b6576040517f08c379a00000000000000000000000000000000000000000000000000000000081526004016107ad9061247e565b60405180910390fd5b60035f8373ffffffffffffffffffffffffffffffffffffffff1673ffffffffffffffffffffffffffffffffffffffff1681526020019081526020015f20549050919050565b610803611212565b5f82826040516024016108179291906124ab565b6040516020818303038152906040527f70ced9d5000000000000000000000000000000000000000000000000000000007bffffffffffffffffffffffffffffffffffffffffffffffffffffffff19166020820180517bffffffffffffffffffffffffffffffffffffffffffffffffffffffff838183161783525050505090505f60095f9054906101000a900473ffffffffffffffffffffffffffffffffffffffff1673ffffffffffffffffffffffffffffffffffffffff16826040516108dd9190612516565b5f604051808303815f865af19150503d805f8114610916576040519150601f19603f3d011682016040523d82523d5f602084013e61091b565b606091505b505090508061095f576040517f08c379a000000000000000000000000000000000000000000000000000000000815260040161095690612576565b60405180910390fd5b61096884611290565b50505050565b610976611212565b61097f5f6113d1565b565b5f60065f9054906101000a900473ffffffffffffffffffffffffffffffffffffffff16905090565b6060600180546109b8906121cc565b80601f01602080910402602001604051908101604052809291908181526020018280546109e4906121cc565b8015610a2f5780601f10610a0657610100808354040283529160200191610a2f565b820191905f5260205f20905b815481529060010190602001808311610a1257829003601f168201915b5050505050905090565b610a4b610a44610d9c565b8383611494565b5050565b610a60610a5a610d9c565b83610e59565b610a9f576040517f08c379a0000000000000000000000000000000000000000000000000000000008152600401610a9690612388565b60405180910390fd5b610aab848484846115fb565b50505050565b6060610abc82611657565b610afb576040517f08c379a0000000000000000000000000000000000000000000000000000000008152600401610af290612604565b60405180910390fd5b60085f8381526020019081526020015f208054610b17906121cc565b80601f0160208091040260200160405190810160405280929190818152602001828054610b43906121cc565b8015610b8e5780601f10610b6557610100808354040283529160200191610b8e565b820191905f5260205f20905b815481529060010190602001808311610b7157829003601f168201915b50505050509050919050565b5f60055f8473ffffffffffffffffffffffffffffffffffffffff1673ffffffffffffffffffffffffffffffffffffffff1681526020019081526020015f205f8373ffffffffffffffffffffffffffffffffffffffff1673ffffffffffffffffffffffffffffffffffffffff1681526020019081526020015f205f9054906101000a900460ff16905092915050565b610c30611212565b60075f815480929190610c429061264f565b91905055505f6007549050610c578382611697565b610c6181836118aa565b505050565b610c6e611212565b5f73ffffffffffffffffffffffffffffffffffffffff168173ffffffffffffffffffffffffffffffffffffffff1603610cdc576040517f08c379a0000000000000000000000000000000000000000000000000000000008152600401610cd390612706565b60405180910390fd5b610ce5816113d1565b50565b5f7f01ffc9a7000000000000000000000000000000000000000000000000000000007bffffffffffffffffffffffffffffffffffffffffffffffffffffffff1916827bffffffffffffffffffffffffffffffffffffffffffffffffffffffff1916149050919050565b610d5a81611657565b610d99576040517f08c379a0000000000000000000000000000000000000000000000000000000008152600401610d90906123f0565b60405180910390fd5b50565b5f33905090565b8160045f8381526020019081526020015f205f6101000a81548173ffffffffffffffffffffffffffffffffffffffff021916908373ffffffffffffffffffffffffffffffffffffffff160217905550808273ffffffffffffffffffffffffffffffffffffffff16610e13836106c3565b73ffffffffffffffffffffffffffffffffffffffff167f8c5be1e5ebec7d5bd14f71427d1e84f3dd0314c0f7b2291e5b200ac8c7c3b92560405160405180910390a45050565b5f80610e64836106c3565b90508073ffffffffffffffffffffffffffffffffffffffff168473ffffffffffffffffffffffffffffffffffffffff161480610ea65750610ea58185610b9a565b5b80610ee457508373ffffffffffffffffffffffffffffffffffffffff16610ecc846104ec565b73ffffffffffffffffffffffffffffffffffffffff16145b91505092915050565b8273ffffffffffffffffffffffffffffffffffffffff16610f0d826106c3565b73ffffffffffffffffffffffffffffffffffffffff1614610f63576040517f08c379a0000000000000000000000000000000000000000000000000000000008152600401610f5a90612794565b60405180910390fd5b5f73ffffffffffffffffffffffffffffffffffffffff168273ffffffffffffffffffffffffffffffffffffffff1603610fd1576040517f08c379a0000000000000000000000000000000000000000000000000000000008152600401610fc890612822565b60405180910390fd5b610fde8383836001611905565b8273ffffffffffffffffffffffffffffffffffffffff16610ffe826106c3565b73ffffffffffffffffffffffffffffffffffffffff1614611054576040517f08c379a000000000000000000000000000000000000000000000000000000000815260040161104b90612794565b60405180910390fd5b60045f8281526020019081526020015f205f6101000a81549073ffffffffffffffffffffffffffffffffffffffff0219169055600160035f8573ffffffffffffffffffffffffffffffffffffffff1673ffffffffffffffffffffffffffffffffffffffff1681526020019081526020015f205f8282540392505081905550600160035f8473ffffffffffffffffffffffffffffffffffffffff1673ffffffffffffffffffffffffffffffffffffffff1681526020019081526020015f205f82825401925050819055508160025f8381526020019081526020015f205f6101000a81548173ffffffffffffffffffffffffffffffffffffffff021916908373ffffffffffffffffffffffffffffffffffffffff160217905550808273ffffffffffffffffffffffffffffffffffffffff168473ffffffffffffffffffffffffffffffffffffffff167fddf252ad1be2c89b69c2b068fc378daa952ba7f163c4a11628f55a4df523b3ef60405160405180910390a46111d4838383600161190b565b505050565b5f60025f8381526020019081526020015f205f9054906101000a900473ffffffffffffffffffffffffffffffffffffffff169050919050565b61121a610d9c565b73ffffffffffffffffffffffffffffffffffffffff16611238610981565b73ffffffffffffffffffffffffffffffffffffffff161461128e576040517f08c379a00000000000000000000000000000000000000000000000000000000081526004016112859061288a565b60405180910390fd5b565b5f61129a826106c3565b90506112a9815f846001611905565b6112b2826106c3565b905060045f8381526020019081526020015f205f6101000a81549073ffffffffffffffffffffffffffffffffffffffff0219169055600160035f8373ffffffffffffffffffffffffffffffffffffffff1673ffffffffffffffffffffffffffffffffffffffff1681526020019081526020015f205f828254039250508190555060025f8381526020019081526020015f205f6101000a81549073ffffffffffffffffffffffffffffffffffffffff0219169055815f73ffffffffffffffffffffffffffffffffffffffff168273ffffffffffffffffffffffffffffffffffffffff167fddf252ad1be2c89b69c2b068fc378daa952ba7f163c4a11628f55a4df523b3ef60405160405180910390a46113cd815f84600161190b565b5050565b5f60065f9054906101000a900473ffffffffffffffffffffffffffffffffffffffff1690508160065f6101000a81548173ffffffffffffffffffffffffffffffffffffffff021916908373ffffffffffffffffffffffffffffffffffffffff1602179055508173ffffffffffffffffffffffffffffffffffffffff168173ffffffffffffffffffffffffffffffffffffffff167f8be0079c531659141344cd1fd0a4f28419497f9722a3daafe3b4186f6b6457e060405160405180910390a35050565b8173ffffffffffffffffffffffffffffffffffffffff168373ffffffffffffffffffffffffffffffffffffffff1603611502576040517f08c379a00000000000000000000000000000000000000000000000000000000081526004016114f9906128f2565b60405180910390fd5b8060055f8573ffffffffffffffffffffffffffffffffffffffff1673ffffffffffffffffffffffffffffffffffffffff1681526020019081526020015f205f8473ffffffffffffffffffffffffffffffffffffffff1673ffffffffffffffffffffffffffffffffffffffff1681526020019081526020015f205f6101000a81548160ff0219169083151502179055508173ffffffffffffffffffffffffffffffffffffffff168373ffffffffffffffffffffffffffffffffffffffff167f17307eab39ab6107e8899845ad3d59bd9653f200f220920489ca2b5937696c31836040516115ee9190611b60565b60405180910390a3505050565b611606848484610eed565b61161284848484611911565b611651576040517f08c379a000000000000000000000000000000000000000000000000000000000815260040161164890612980565b60405180910390fd5b50505050565b5f8073ffffffffffffffffffffffffffffffffffffffff16611678836111d9565b73ffffffffffffffffffffffffffffffffffffffff1614159050919050565b5f73ffffffffffffffffffffffffffffffffffffffff168273ffffffffffffffffffffffffffffffffffffffff1603611705576040517f08c379a00000000000000000000000000000000000000000000000000000000081526004016116fc906129e8565b60405180910390fd5b61170e81611657565b1561174e576040517f08c379a000000000000000000000000000000000000000000000000000000000815260040161174590612a50565b60405180910390fd5b61175b5f83836001611905565b61176481611657565b156117a4576040517f08c379a000000000000000000000000000000000000000000000000000000000815260040161179b90612a50565b60405180910390fd5b600160035f8473ffffffffffffffffffffffffffffffffffffffff1673ffffffffffffffffffffffffffffffffffffffff1681526020019081526020015f205f82825401925050819055508160025f8381526020019081526020015f205f6101000a81548173ffffffffffffffffffffffffffffffffffffffff021916908373ffffffffffffffffffffffffffffffffffffffff160217905550808273ffffffffffffffffffffffffffffffffffffffff165f73ffffffffffffffffffffffffffffffffffffffff167fddf252ad1be2c89b69c2b068fc378daa952ba7f163c4a11628f55a4df523b3ef60405160405180910390a46118a65f8383600161190b565b5050565b8060085f8481526020019081526020015f2090816118c89190612c0b565b50817f2f8416dff507d86871aa110c3664249bdbfba0e4adba7dbffa079c6ce083ee63826040516118f99190611c03565b60405180910390a25050565b50505050565b50505050565b5f6119318473ffffffffffffffffffffffffffffffffffffffff16611a93565b15611a86578373ffffffffffffffffffffffffffffffffffffffff1663150b7a0261195a610d9c565b8786866040518563ffffffff1660e01b815260040161197c9493929190612d22565b6020604051808303815f875af19250505080156119b757506040513d601f19601f820116820180604052508101906119b49190612d80565b60015b611a36573d805f81146119e5576040519150601f19603f3d011682016040523d82523d5f602084013e6119ea565b606091505b505f815103611a2e576040517f08c379a0000000000000000000000000000000000000000000000000000000008152600401611a2590612980565b60405180910390fd5b805181602001fd5b63150b7a0260e01b7bffffffffffffffffffffffffffffffffffffffffffffffffffffffff1916817bffffffffffffffffffffffffffffffffffffffffffffffffffffffff191614915050611a8b565b600190505b949350505050565b5f808273ffffffffffffffffffffffffffffffffffffffff163b119050919050565b5f604051905090565b5f80fd5b5f80fd5b5f7fffffffff0000000000000000000000000000000000000000000000000000000082169050919050565b611afa81611ac6565b8114611b04575f80fd5b50565b5f81359050611b1581611af1565b92915050565b5f60208284031215611b3057611b2f611abe565b5b5f611b3d84828501611b07565b91505092915050565b5f8115159050919050565b611b5a81611b46565b82525050565b5f602082019050611b735f830184611b51565b92915050565b5f81519050919050565b5f82825260208201905092915050565b5f5b83811015611bb0578082015181840152602081019050611b95565b5f8484015250505050565b5f601f19601f8301169050919050565b5f611bd582611b79565b611bdf8185611b83565b9350611bef818560208601611b93565b611bf881611bbb565b840191505092915050565b5f6020820190508181035f830152611c1b8184611bcb565b905092915050565b5f819050919050565b611c3581611c23565b8114611c3f575f80fd5b50565b5f81359050611c5081611c2c565b92915050565b5f60208284031215611c6b57611c6a611abe565b5b5f611c7884828501611c42565b91505092915050565b5f73ffffffffffffffffffffffffffffffffffffffff82169050919050565b5f611caa82611c81565b9050919050565b611cba81611ca0565b82525050565b5f602082019050611cd35f830184611cb1565b92915050565b611ce281611ca0565b8114611cec575f80fd5b50565b5f81359050611cfd81611cd9565b92915050565b5f8060408385031215611d1957611d18611abe565b5b5f611d2685828601611cef565b9250506020611d3785828601611c42565b9150509250929050565b5f805f60608486031215611d5857611d57611abe565b5b5f611d6586828701611cef565b9350506020611d7686828701611cef565b9250506040611d8786828701611c42565b9150509250925092565b5f60208284031215611da657611da5611abe565b5b5f611db384828501611cef565b91505092915050565b611dc581611c23565b82525050565b5f602082019050611dde5f830184611dbc565b92915050565b5f819050919050565b611df681611de4565b8114611e00575f80fd5b50565b5f81359050611e1181611ded565b92915050565b5f8060408385031215611e2d57611e2c611abe565b5b5f611e3a85828601611c42565b9250506020611e4b85828601611e03565b9150509250929050565b611e5e81611b46565b8114611e68575f80fd5b50565b5f81359050611e7981611e55565b92915050565b5f8060408385031215611e9557611e94611abe565b5b5f611ea285828601611cef565b9250506020611eb385828601611e6b565b9150509250929050565b5f80fd5b5f80fd5b7f4e487b71000000000000000000000000000000000000000000000000000000005f52604160045260245ffd5b611efb82611bbb565b810181811067ffffffffffffffff82111715611f1a57611f19611ec5565b5b80604052505050565b5f611f2c611ab5565b9050611f388282611ef2565b919050565b5f67ffffffffffffffff821115611f5757611f56611ec5565b5b611f6082611bbb565b9050602081019050919050565b828183375f83830152505050565b5f611f8d611f8884611f3d565b611f23565b905082815260208101848484011115611fa957611fa8611ec1565b5b611fb4848285611f6d565b509392505050565b5f82601f830112611fd057611fcf611ebd565b5b8135611fe0848260208601611f7b565b91505092915050565b5f805f806080858703121561200157612000611abe565b5b5f61200e87828801611cef565b945050602061201f87828801611cef565b935050604061203087828801611c42565b925050606085013567ffffffffffffffff81111561205157612050611ac2565b5b61205d87828801611fbc565b91505092959194509250565b5f806040838503121561207f5761207e611abe565b5b5f61208c85828601611cef565b925050602061209d85828601611cef565b9150509250929050565b5f67ffffffffffffffff8211156120c1576120c0611ec5565b5b6120ca82611bbb565b9050602081019050919050565b5f6120e96120e4846120a7565b611f23565b90508281526020810184848401111561210557612104611ec1565b5b612110848285611f6d565b509392505050565b5f82601f83011261212c5761212b611ebd565b5b813561213c8482602086016120d7565b91505092915050565b5f806040838503121561215b5761215a611abe565b5b5f61216885828601611cef565b925050602083013567ffffffffffffffff81111561218957612188611ac2565b5b61219585828601612118565b9150509250929050565b7f4e487b71000000000000000000000000000000000000000000000000000000005f52602260045260245ffd5b5f60028204905060018216806121e357607f821691505b6020821081036121f6576121f561219f565b5b50919050565b7f4552433732313a20617070726f76616c20746f2063757272656e74206f776e655f8201527f7200000000000000000000000000000000000000000000000000000000000000602082015250565b5f612256602183611b83565b9150612261826121fc565b604082019050919050565b5f6020820190508181035f8301526122838161224a565b9050919050565b7f4552433732313a20617070726f76652063616c6c6572206973206e6f7420746f5f8201527f6b656e206f776e6572206f7220617070726f76656420666f7220616c6c000000602082015250565b5f6122e4603d83611b83565b91506122ef8261228a565b604082019050919050565b5f6020820190508181035f830152612311816122d8565b9050919050565b7f4552433732313a2063616c6c6572206973206e6f7420746f6b656e206f776e655f8201527f72206f7220617070726f76656400000000000000000000000000000000000000602082015250565b5f612372602d83611b83565b915061237d82612318565b604082019050919050565b5f6020820190508181035f83015261239f81612366565b9050919050565b7f4552433732313a20696e76616c696420746f6b656e20494400000000000000005f82015250565b5f6123da601883611b83565b91506123e5826123a6565b602082019050919050565b5f6020820190508181035f830152612407816123ce565b9050919050565b7f4552433732313a2061646472657373207a65726f206973206e6f7420612076615f8201527f6c6964206f776e65720000000000000000000000000000000000000000000000602082015250565b5f612468602983611b83565b91506124738261240e565b604082019050919050565b5f6020820190508181035f8301526124958161245c565b9050919050565b6124a581611de4565b82525050565b5f6040820190506124be5f830185611dbc565b6124cb602083018461249c565b9392505050565b5f81519050919050565b5f81905092915050565b5f6124f0826124d2565b6124fa81856124dc565b935061250a818560208601611b93565b80840191505092915050565b5f61252182846124e6565b915081905092915050565b7f7472616e73666572546f425343206661696c65640000000000000000000000005f82015250565b5f612560601483611b83565b915061256b8261252c565b602082019050919050565b5f6020820190508181035f83015261258d81612554565b9050919050565b7f4552433732314d657461646174613a2055524920717565727920666f72206e6f5f8201527f6e6578697374656e7420746f6b656e0000000000000000000000000000000000602082015250565b5f6125ee602f83611b83565b91506125f982612594565b604082019050919050565b5f6020820190508181035f83015261261b816125e2565b9050919050565b7f4e487b71000000000000000000000000000000000000000000000000000000005f52601160045260245ffd5b5f61265982611c23565b91507fffffffffffffffffffffffffffffffffffffffffffffffffffffffffffffffff820361268b5761268a612622565b5b600182019050919050565b7f4f776e61626c653a206e6577206f776e657220697320746865207a65726f20615f8201527f6464726573730000000000000000000000000000000000000000000000000000602082015250565b5f6126f0602683611b83565b91506126fb82612696565b604082019050919050565b5f6020820190508181035f83015261271d816126e4565b9050919050565b7f4552433732313a207472616e736665722066726f6d20696e636f7272656374205f8201527f6f776e6572000000000000000000000000000000000000000000000000000000602082015250565b5f61277e602583611b83565b915061278982612724565b604082019050919050565b5f6020820190508181035f8301526127ab81612772565b9050919050565b7f4552433732313a207472616e7366657220746f20746865207a65726f206164645f8201527f7265737300000000000000000000000000000000000000000000000000000000602082015250565b5f61280c602483611b83565b9150612817826127b2565b604082019050919050565b5f6020820190508181035f83015261283981612800565b9050919050565b7f4f776e61626c653a2063616c6c6572206973206e6f7420746865206f776e65725f82015250565b5f612874602083611b83565b915061287f82612840565b602082019050919050565b5f6020820190508181035f8301526128a181612868565b9050919050565b7f4552433732313a20617070726f766520746f2063616c6c6572000000000000005f82015250565b5f6128dc601983611b83565b91506128e7826128a8565b602082019050919050565b5f6020820190508181035f830152612909816128d0565b9050919050565b7f4552433732313a207472616e7366657220746f206e6f6e2045524337323152655f8201527f63656976657220696d706c656d656e7465720000000000000000000000000000602082015250565b5f61296a603283611b83565b915061297582612910565b604082019050919050565b5f6020820190508181035f8301526129978161295e565b9050919050565b7f4552433732313a206d696e7420746f20746865207a65726f20616464726573735f82015250565b5f6129d2602083611b83565b91506129dd8261299e565b602082019050919050565b5f6020820190508181035f8301526129ff816129c6565b9050919050565b7f4552433732313a20746f6b656e20616c7265616479206d696e746564000000005f82015250565b5f612a3a601c83611b83565b9150612a4582612a06565b602082019050919050565b5f6020820190508181035f830152612a6781612a2e565b9050919050565b5f819050815f5260205f209050919050565b5f6020601f8301049050919050565b5f82821b905092915050565b5f60088302612aca7fffffffffffffffffffffffffffffffffffffffffffffffffffffffffffffffff82612a8f565b612ad48683612a8f565b95508019841693508086168417925050509392505050565b5f819050919050565b5f612b0f612b0a612b0584611c23565b612aec565b611c23565b9050919050565b5f819050919050565b612b2883612af5565b612b3c612b3482612b16565b848454612a9b565b825550505050565b5f90565b612b50612b44565b612b5b818484612b1f565b505050565b5b81811015612b7e57612b735f82612b48565b600181019050612b61565b5050565b601f821115612bc357612b9481612a6e565b612b9d84612a80565b81016020851015612bac578190505b612bc0612bb885612a80565b830182612b60565b50505b505050565b5f82821c905092915050565b5f612be35f1984600802612bc8565b1980831691505092915050565b5f612bfb8383612bd4565b9150826002028217905092915050565b612c1482611b79565b67ffffffffffffffff811115612c2d57612c2c611ec5565b5b612c3782546121cc565b612c42828285612b82565b5f60209050601f831160018114612c73575f8415612c61578287015190505b612c6b8582612bf0565b865550612cd2565b601f198416612c8186612a6e565b5f5b82811015612ca857848901518255600182019150602085019450602081019050612c83565b86831015612cc55784890151612cc1601f891682612bd4565b8355505b6001600288020188555050505b505050505050565b5f82825260208201905092915050565b5f612cf4826124d2565b612cfe8185612cda565b9350612d0e818560208601611b93565b612d1781611bbb565b840191505092915050565b5f608082019050612d355f830187611cb1565b612d426020830186611cb1565b612d4f6040830185611dbc565b8181036060830152612d618184612cea565b905095945050505050565b5f81519050612d7a81611af1565b92915050565b5f60208284031215612d9557612d94611abe565b5b5f612da284828501612d6c565b9150509291505056fea26469706673582212201bf7dd05c8497cac9ecd6fbf9b7cdcc4210aee31a0749677730cbf18cf6b085864736f6c63430008140033",
  "immutableReferences": {},
  "source": "// SPDX-License-Identifier: MIT\npragma solidity ^0.8.0;\n\nimport \"@openzeppelin/contracts/token/ERC721/ERC721.sol\";\nimport \"@openzeppelin/contracts/access/Ownable.sol\";\n\ncontract CrossChainNFT is ERC721, Ownable {\n    // NFT ID \n    uint256 private _tokenIds;\n\n    // NFT ID  NFT \n    mapping(uint256 => string) private _tokenURIs;\n\n    // TokenBridge \n    address private _tokenBridge;\n\n    // \n    constructor(\n        string memory name,\n        string memory symbol,\n        address tokenBridge\n    ) ERC721(name, symbol) {\n        _tokenBridge = tokenBridge;\n    }\n\n    //  NFT\n    function mintNFT(address to, string memory nftURI) external onlyOwner {\n        _tokenIds++;\n        uint256 tokenId = _tokenIds;\n        _mint(to, tokenId);\n        _setNFTURI(tokenId, nftURI);\n    }\n\n    //  NFT\n    function transferToBSC(\n        uint256 tokenId,\n        bytes32 recipient\n    ) external onlyOwner {\n        bytes memory data = abi.encodeWithSignature(\n            \"transferToBSC(uint256,bytes32)\",\n            tokenId,\n            recipient\n        );\n        (bool success, ) = address(_tokenBridge).call(data);\n        require(success, \"transferToBSC failed\");\n        _burn(tokenId);\n    }\n\n    //  NFT \n    function _setNFTURI(uint256 tokenId, string memory nftURI) internal {\n        _tokenURIs[tokenId] = nftURI;\n        emit NFTURI(nftURI, tokenId);\n    }\n\n    //  NFT \n    function tokenURI(\n        uint256 tokenId\n    ) public view virtual override returns (string memory) {\n        require(\n            _exists(tokenId),\n            \"ERC721Metadata: URI query for nonexistent token\"\n        );\n        return _tokenURIs[tokenId];\n    }\n\n    //  NFTURI \n    event NFTURI(string uri, uint256 indexed tokenId);\n}\n",
  "sourcePath": "/Users/hailiting/Desktop/web3_demo/contract/contracts/CrossChainNFT.sol",
  "compiler": {
    "name": "solc",
    "version": "0.8.20+commit.a1b79de6.Emscripten.clang"
  },
  "schemaVersion": "3.4.14",
  "updatedAt": "2023-07-09T14:16:52.524Z",
  "devdoc": {
    "events": {
      "Approval(address,address,uint256)": {
        "details": "Emitted when `owner` enables `approved` to manage the `tokenId` token."
      },
      "ApprovalForAll(address,address,bool)": {
        "details": "Emitted when `owner` enables or disables (`approved`) `operator` to manage all of its assets."
      },
      "Transfer(address,address,uint256)": {
        "details": "Emitted when `tokenId` token is transferred from `from` to `to`."
      }
    },
    "kind": "dev",
    "methods": {
      "approve(address,uint256)": {
        "details": "See {IERC721-approve}."
      },
      "balanceOf(address)": {
        "details": "See {IERC721-balanceOf}."
      },
      "getApproved(uint256)": {
        "details": "See {IERC721-getApproved}."
      },
      "isApprovedForAll(address,address)": {
        "details": "See {IERC721-isApprovedForAll}."
      },
      "name()": {
        "details": "See {IERC721Metadata-name}."
      },
      "owner()": {
        "details": "Returns the address of the current owner."
      },
      "ownerOf(uint256)": {
        "details": "See {IERC721-ownerOf}."
      },
      "renounceOwnership()": {
        "details": "Leaves the contract without owner. It will not be possible to call `onlyOwner` functions. Can only be called by the current owner. NOTE: Renouncing ownership will leave the contract without an owner, thereby disabling any functionality that is only available to the owner."
      },
      "safeTransferFrom(address,address,uint256)": {
        "details": "See {IERC721-safeTransferFrom}."
      },
      "safeTransferFrom(address,address,uint256,bytes)": {
        "details": "See {IERC721-safeTransferFrom}."
      },
      "setApprovalForAll(address,bool)": {
        "details": "See {IERC721-setApprovalForAll}."
      },
      "supportsInterface(bytes4)": {
        "details": "See {IERC165-supportsInterface}."
      },
      "symbol()": {
        "details": "See {IERC721Metadata-symbol}."
      },
      "tokenURI(uint256)": {
        "details": "See {IERC721Metadata-tokenURI}."
      },
      "transferFrom(address,address,uint256)": {
        "details": "See {IERC721-transferFrom}."
      },
      "transferOwnership(address)": {
        "details": "Transfers ownership of the contract to a new account (`newOwner`). Can only be called by the current owner."
      }
    },
    "version": 1
  },
  "userdoc": {
    "kind": "user",
    "methods": {},
    "version": 1
  }
}